:100000000C942D020C9465020C9465020C9465020C
:100010000C9465020C9465020C9465020C946502C4
:100020000C9465020C9465020C9460210C943422AB
:100030000C94EB1B0C9465020C9465020C94650205
:100040000C9465020C9465020C9465020C94650294
:100050000C9465020C94721C0C9465020C9465025D
:100060000C9465020C9465020C9465020C94650274
:100070000C9465020C9465020C9465020C94650264
:100080000C9465020C9465020C9465020C94650254
:100090000C9465020C9465020C9465020C94650244
:1000A0000C9465020C9465020C9465022B001400FC
:1000B0001A000800150017001C0018000C001200A0
:1000C00013002A00290004001600070009000A0096
:1000D0000B000D000E000F0033003400E1001D0086
:1000E0001B00060019000500110010003600370043
:1000F0003800E5000000E000E300E200777C2C001F
:100100002800787CE600E700E400000001001E0003
:100110001F002000210022002300240025002600CB
:1001200027002A000100000000000000000000007D
:100130005000510052004F0000000000010000007C
:1001400000000000000000000000000000000000AF
:100150000000000001000100010001000100010099
:1001600001000100010001000100010001001E0268
:100170001F0220022102220223022402250226025B
:1001800027022A000100000000000000000000001B
:100190002D002E002F023002310235000100000038
:1001A00000000000000000002D022E022F00300091
:1001B00031003502010001000100010001000100D1
:1001C0000100010001000100010001000100000028
:1001D000000000000000000000000000000000001F
:1001E000000000000100000000000000000000000E
:1001F00000000000000000000000000001000000FE
:1002000000000000000000000000000000000000EE
:1002100000000000010001000100010001000100D8
:1002200001000100010001000100010000000000C8
:10023000000000002A2B2800000000000000000041
:100240000000000000000029000000002C1E3420E7
:10025000212224342627252E362D3738271E1F200D
:100260002122232425263333362E37381F04050652
:100270000708090A0B0C0D0E0F1011121314151696
:100280001718191A1B1C1D2F3130232D3504050694
:100290000708090A0B0C0D0E0F1011121314151676
:1002A0001718191A1B1C1D2F3130354C0000000087
:1002B000000000000000000000000000000000003E
:1002C000000000000000000000000000000000002E
:1002D0007E0F00D4FFFFFFC7000000781403430027
:1002E0006F0072006E0065006C006900750073009D
:1002F00000001403590075007300680061006B0072
:100300006F0062006F0000000403090409025B0033
:10031000030100A0FA090400000103010100092102
:1003200011010001224400070581030800010904AE
:100330000100020300000009211101000122220036
:1003400007058203200001070503032000010904BB
:1003500002000103000000092111010001227B00BD
:100360000705840320000112010002000000086557
:100370003205000100010200010660FF0961A101D0
:100380000962150026FF0095207508810209631592
:100390000026FF00952075089102C005010902A101
:1003A0000185020901A10005091901290815002587
:1003B0000195087501810205010930093115812572
:1003C0007F95027508810609381581257F9501758D
:1003D000088106050C0A38021581257F95017508EC
:1003E0008106C0C005010980A101850319012AB752
:1003F00000150126B700950175108100C0050C0994
:1004000001A101850419012AA002150126A0029567
:100410000175108100C005010906A101050719E059
:1004200029E71500250195087501810295017508D8
:1004300081010507190029FF150026FF00950675A3
:100440000881000508190129051500250195057584
:10045000019102950175039101C011241FBECFEFD8
:10046000DAE0DEBFCDBF04B603FE18C0809178028B
:1004700090917902A0917A02B0917B028730904BE3
:10048000A740B04B59F41092780210927902109262
:100490007A0210927B02E0E0F8E3099511E0A0E017
:1004A000B1E0E6E0FAE402C005900D92AA3AB10785
:1004B000D9F722E0AAEAB1E001C01D92A837B2073D
:1004C000E1F70E94D9110C94AF240C940000843001
:1004D000B8F46430A8F44C3098F450E09CE0699F84
:1004E000400D511D1124FA0190E3899FE00DF11D8B
:1004F0001124EE0FFF1FE455FF4F8591949108954D
:1005000081E090E0089581E008950E9483020895BB
:1005100081E008950E94830208950E948A0208954E
:1005200008950E9490020895A6E0B0E0EAE9F2E0A2
:100530000C940B2449835A839E833091B1018981A5
:100540009A8131111AC03E81332399F0222389F018
:100550000E947308182F682F89819A810E944F0882
:1005600069817A81812F0E947C0F2696E3E00C94AA
:1005700027240E946108182FF3CF0E947308698115
:100580007A81F1CFFC01262F4081518162817381F4
:10059000848195810E9494020895CF93DF93EC01AA
:1005A00061E00E94C202BE010E948502DF91CF91EC
:1005B0000895CF93DF93EC0160E00E94C202BE0178
:1005C0000E949102DF91CF91089581E008950E94E9
:1005D000E5020895CF93C82F0E944B078C2F0E94ED
:1005E000E7022FEF84E39CE0215080409040E1F748
:1005F00000C00000CF91089581E00E94EA020E94AD
:10060000961C089580E00E94EA020E94BA1C089598
:100610000F931F93CF93DF938C0161E00E94C2027E
:10062000EC01B8010E94AE19811106C080E0DF9193
:10063000CF911F910F910895B801CE010E948D02B4
:100640008823A1F3B801CE010E94BB18882371F35F
:10065000B801CE010E94D613882341F3B801CE0120
:100660000E94AC13882311F3B801CE010E94FF1839
:100670008823E1F2F8018581882361F0C330FCE72B
:10068000DF07E9F058F4C115ECE7DE07A9F0C13047
:10069000DC47B9F0C8010E948802C9CFCB358CE78E
:1006A000D807A9F0CC35ECE7DE0771F0CA35DC4796
:1006B00089F70E94AC0CEECF0E94FC02B7CF0E94DB
:1006C000B40C0E940203B2CF0E94A20CE3CF0E949E
:1006D000B00CE0CF0E94C71B0E94910308950E94B6
:1006E00095030E94CC1B0895089581E00895089514
:1006F000CF93DF93D82F0E947503C82F882319F05A
:100700008D2F0E9477038C2FDF91CF91089508954C
:10071000CF93C82F0E9474038C2F0E947803CF912F
:10072000089580E00E94880308950E949A1A0E940A
:1007300088030895CF930E949A1AC82F8091AC0124
:100740008C1779F0C093AC010E94571C6093AD01E7
:100750007093AE018093AF019093B0018C2F0E94F3
:100760008803CF910895ADE0B0E0E9EBF3E00C949D
:100770000C24488759876A877B878C879D879111CE
:100780000E94E20B1F8286E0FE013896DE01119680
:1007900001900D928A95E1F78D8181110DC029811B
:1007A0003A814B815C816D817E818F810E942C0B0F
:1007B0002D96E2E00C942824CE0101960E94CD02F1
:1007C0008111EDCFF5CFFC012481213021F480810E
:1007D00091810E94A0080895662329F00E94371590
:1007E0000E941C1608950E94A315FACFCF93C82F1C
:1007F0008823C9F08238C9F40E94A71A81FD13C06A
:1008000089E30E945D1B0E94510C2FEF87EE93E05D
:10081000215080409040E1F700C0000089E30E9431
:10082000651B0E94510CCF9108958338A1F40E945A
:10083000A71A80FDF8CF83E50E945D1B0E94510C32
:100840002FEF81EE94E0215080409040E1F700C00E
:10085000000083E5E4CF8438A1F40E94A71A82FD4A
:10086000E2CF87E40E945D1B0E94510C2FEF81EEC6
:1008700094E0215080409040E1F700C0000087E400
:10088000CECF8CEF8C0F813A70F48C2F0E94221BFC
:10089000882329F08C2F0E94651B0E94510C8C2FFD
:1008A0000E945D1BBECF80E28C0F883048F4C77079
:1008B00081E001C0880FCA95EAF70E94C50BB1CF4D
:1008C000EBE5EC0FE33040F4F0E0E25BFE4F8081BB
:1008D00090E00E94C31AA7CFE8E5EC0FEB3150F48B
:1008E000F0E0EE0FFF1FE85EFE4F808191810E94D5
:1008F000E81A99CF83E38C0F833108F094CF61E03D
:100900008C2F0E94EC038FCF882309F456C08238C5
:1009100079F40E94A71A81FF50C089E30E945D1BF1
:100920000E94510C89E30E94651B0E94510C08959E
:10093000833859F40E94A71A80FF3FC083E50E94C4
:100940005D1B0E94510C83E5EECF843859F40E9460
:10095000A71A82FF32C087E40E945D1B0E94510CDF
:1009600087E4E1CF9CEF980F913AE8F290E2980F7C
:10097000983050F4877091E001C0990F8A95EAF79A
:10098000892F0E94CB0BD1CF9BE5980F933028F491
:1009900090E080E00E94C31A089598E5980F9B317B
:1009A00028F490E080E00E94E81A089593E3980FFD
:1009B000933118F460E00E94EC0308951F93CF93E5
:1009C000DF93182FEB010E94F603209739F4812F53
:1009D0000E948404DF91CF911F9108958FE99FE0D9
:1009E0000197F1F700C000002197EFCF70E060E0C1
:1009F000893311F460E570E00E94DE0408958823D5
:100A000021F00E94C50B0E94510C0895882321F00B
:100A10000E94CB0B0E94510C0895B0E0A0E0E3E1EE
:100A2000F5E00C9405246C01D62FC72FFC0115812D
:100A3000068102950F700E94BB0BE82E8823F9F007
:100A4000E12E1123E1F08C2F807F803461F080E271
:100A50008D0F883008F18C2F807E803221F4D230C7
:100A6000D8F00023C9F08091560282FF15C082E0C1
:100A70000E94760C0E94BB0B91E0E82EE926BC2E6A
:100A8000B2949FE0B922FBE0FB15B8F1EB2DF0E04A
:100A9000EF54FB4D0C94EF23E12CF1CF0C2F0F7092
:100AA000C07F11F00295007F112399F0002359F0C7
:100AB00080E28D0F883010F0D11107C0802F0E9486
:100AC000C50B0E94510C8D2F5AC0802F0E94D50B50
:100AD000F8CF8D2F0E948404002379F080E28D0FDF
:100AE000883010F0D11104C0802F0E94CB0B03C0BE
:100AF000802F0E94DB0B0E94510CEB2DE850FF0B66
:100B0000349720F40E949A1A0E948803EE2089F0FC
:100B10000E94B70B80FD0DC0F60115820E94B10B3B
:100B20000E94C307C6010E9412070E94B10B0E94D7
:100B3000CF07CDB7DEB7E9E00C9421242C2F2F701E
:100B4000F22EC07FC03219F0F29480EFF822DD233C
:100B500041F0D130D1F1112309F444C00023F1F068
:100B6000B2CF8091560282FD15C0112359F0FF20AB
:100B700029F08F2D0E94C50B0E94510C80E00E942D
:100B8000F603BBCF80E00E948404FF2009F4B5CFB8
:100B90008F2DABCF112369F0011104C08F2D0E945E
:100BA000FF04ABCF013009F0A8CF8F2D0E94F90BC5
:100BB000A4CF0111A2CF8F2D0E9406058F2D0E9478
:100BC000050C8F2D0E94E90B98CF112321F00630E0
:100BD00008F093CFE3CF053008F08FCF8F2D0E9420
:100BE00006058BCF0023D1F3D93349F43FEF87EECD
:100BF00093E0315080409040E1F700C000008D2F1D
:100C00000E9484047ACF8C2F86958695837069F034
:100C1000813009F072CF8D2F9C2F9370111102C07B
:100C200080E090E00E94E81A68CF8D2F9C2F93708F
:100C3000111102C080E090E00E94C31A5ECF612FC4
:100C40008D2F0E94EC0359CF8C2F837079F51111F1
:100C500054CF4D2F429546954770440F440F8D2F2A
:100C60008F70042E01C0880F0A94EAF72D2F20718F
:100C7000D4FF07C02FE030E001C0220F4A95EAF709
:100C80002095C695C695C370822BC23049F058F4A2
:100C9000C13019F00E949F0730CF0E9499072DCFD5
:100CA0000E94A5072ACF0E94960727CF8695112379
:100CB00011F08C2F8170882309F41FCF4D2F42959E
:100CC00046954770440F440F8D2F8F70042E01C03E
:100CD000880F0A94EAF72D2F2071D4FF07C02FE068
:100CE00030E001C0220F4A95EAF72095C695C695D7
:100CF000C370822BC23049F058F4C13019F00E9401
:100D0000EE07FBCE0E94E807F8CE0E94F407F5CE6E
:100D10000E94B107F2CECF70112329F08C2F0E94D0
:100D2000C3078D2F3CCF8D2F0E9406058C2F0E946C
:100D3000CF07E3CED23F41F160F4D03FB9F0D13FCD
:100D400081F0112309F446C00111BDCE8C2F8F71A3
:100D50001FC0D33F01F1D43FA1F78091560282FD1D
:100D600024C08C2F8F71112311F312C0112341F075
:100D7000053008F0C2CE8C2F8F710E94DC07BDCEEB
:100D8000063008F0BACEF7CF8C2F8F711111CFCF6C
:100D90000E94C307B2CE112329F08C2F8F710E94BD
:100DA000BA07ABCE0E94B607A8CE112349F0CF7187
:100DB0008C2F0E94C30763E08C2F0E94580C9DCE9D
:100DC00081E00E94760C023008F497CE82E00E9407
:100DD000760C93CE002359F0D93309F010CFEFEF02
:100DE000F7EE23E0E150F0402040E1F706CF8C2FF2
:100DF0008F719DCF0F931F93CF93DF93EC01688189
:100E000079818D810E94AB088C010E94FA070E94B3
:100E10009507B801CE010E940D05DF91CF911F917A
:100E20000F910895CF93DF93EC018C81882399F083
:100E3000CE010E940803811111C00E94BB0B8823C0
:100E400051F08D81882339F08091560282FF03C0D2
:100E500082E00E94760CDF91CF910895CE010E942E
:100E6000FA06CE010E94D902F6CF90E080E00E94FF
:100E7000C31A90E080E00E94E81A0E94E20B0E94F0
:100E8000510C0E9438160E941C1608950E946D1B7A
:100E90000E94350708950E94D20B0E9446070895CC
:100EA00092959F70963091F058F4925F9F709230B7
:100EB00058F4803F19F030F4883E30F481E0089512
:100EC0009A5FF4CF843FD1F380E00895883EB0F379
:100ED000813FD1F7F3CFFC012481222339F08081B7
:100EE00091810E94A0080E945007089580E0089513
:100EF000A6E0B0E0EEE7F7E00C940C242696E2E0E2
:100F00000C942824A7E0B0E0E8E8F7E00C940C2467
:100F10002796E2E00C94282408950E948C070895F7
:100F20000E948D078093C501089508950E9490073F
:100F300008959091C501892B0E9490070895909182
:100F4000C50189230E94900708959091C5018927C2
:100F50000E94900708950E948C0708950E94AB0795
:100F600008950E94AE078093C401089580E00E9416
:100F7000B107089591E001C0990F8A95EAF7892F8A
:100F80000E94B107089521E030E001C0220F8A9548
:100F9000EAF78091C401822B0E94B107089521E0F5
:100FA00030E001C0220F8A95EAF720958091C401B4
:100FB00082230E94B107089521E030E001C0220F92
:100FC0008A95EAF78091C40182270E94B1070895AB
:100FD0009091C401892B0E94B10708959091C4019A
:100FE00089230E94B10708959091C40189270E9426
:100FF000B10708950895262F277091E001C0990F39
:101000002A95EAF723E0769567952A95E1F7FB01A3
:10101000EE0FFF1FE60FF71FE40FF51F50E040E053
:10102000682F70E08191DF0111979B01042E02C0AF
:10103000369527950A94E2F72170219528272923D0
:1010400028272C934F5F5F4F4330510559F7089580
:10105000A82FA77023E0969587952A95E1F7FC01C4
:10106000EE0FFF1FE80FF91FE60FF71F50E040E0FB
:1010700080E0219130E00A2E02C0369527950A942F
:10108000E2F721703327042E01C0220F0A94EAF7F9
:10109000822B4F5F5F4F4330510559F70895262F3C
:1010A000943070F48C3060F4682F70E08CE0989F7E
:1010B000600D711D112442EB51E0822F0E94FB074D
:1010C0000895292F943068F48C3058F490E062EB46
:1010D00071E03CE0239F800D911D11240E9428089F
:1010E000089580E00895CF92DF92FF920F931F93AF
:1010F000CF93DF936C010091C4018091C501082B4F
:10110000C3E0D0E010E0FC2EC8010C2E02C0959583
:1011100087950A94E2F780FD0CC02197A0F7F12C87
:101120008F2DDF91CF911F910F91FF90DF90CF9086
:101130000895B6018C2F0E94880F019771F3F0CFAC
:10114000CF93DF93EC010E947308BE010E94880FC9
:10115000DF91CF9108951F93CF93DF93EB0190918F
:10116000B101992339F0CB010E94A008DF91CF9102
:101170001F910895882369F0CB010E947308182FEE
:10118000682FCE010E944F08BE01812F0E94880F58
:10119000EDCFCB010E946108182FF6CFE1E0F0E01F
:1011A000DF0102C0AA0FBB1F6A95E2F7BD01DF0194
:1011B00002C0AA0FBB1F4A95E2F76A2B01C0EE0FCF
:1011C0002A95EAF7962F9823961302C08E2B08953E
:1011D000E0958E230895242F462F682F8091C40117
:1011E0000E94CE080E94B10708951F93CF93DF930A
:1011F000C091C60117E08091C7018C1304C0DF9134
:10120000CF911F910895D0E01C9FF0011D9FF00D1C
:101210001124E853FE4F2081318142815381648142
:10122000758186810E9482072196C770E4CF209144
:10123000000230910102409102025091030260913C
:10124000040270910502809106020E9482070895AF
:10125000CF93DF9380910602807F09F04DC080918B
:101260000502882309F448C0E091C6015091C701E6
:10127000C0910102D09100026091020270910302BC
:1012800047E05E17C9F18E2F90E0E49FF001112432
:10129000E853FE4F2481222391F1489FF001499F9A
:1012A000F00D1124DF01A853BE4F11962C91119718
:1012B0002C1325C02C912D1322C015962C91159717
:1012C00021111DC012962D913C91261B370B283CF5
:1012D0003105A8F4809106028F7080618093060228
:1012E000E253FE4F80818F708061808380E092E0C6
:1012F0000E9412070E94F508DF91CF910895FC012A
:101300003196E770BECF482F2091C6019091C7015A
:1013100057E0291302C080E0089530E0529FF001A9
:10132000539FF00D1124E853FE4F8181681306C0CE
:101330008081481303C085818111EECF2F5F3F4F1D
:101340002770E7CFA4E1B0E0E8EAF9E00C940224CA
:101350008C0186E0F801DE011F9601900D928A95BE
:10136000E1F7F8018481E58090E0A92E92E0B92EA2
:101370009091040291111FC08823D1F0EE20A9F0B2
:10138000C8010E946B07F82E882379F087E0F801E6
:10139000D50101900D928A95E1F7C5010E94E30302
:1013A0000E9428090E9417095FC0C8010E94120705
:1013B000FF24F39459C0C080D18082809380F09044
:1013C00005022091020230910302A401421B530B3B
:1013D000FF2009F4F9C0483C510508F0A7C0882354
:1013E00009F442C09091010280910602282F207FCB
:1013F00009F05CC09D1116C090910002C91212C084
:10140000E1104EC08F708061809306020E94170920
:1014100080E092E00E94120780910602F801868324
:10142000F12C22C0E1103CC06D2D8C2D0E9483094F
:101430006D2D8C2D0E948309E82E8111F1CFCF866E
:10144000D88A8F8598890E94A008292F22952F700D
:10145000243078F49F702230A8F09923B9F0F80175
:101460009681907F99F4FE2C8F2D6496ECE00C947D
:101470001E242A5F2F70223068F0C8010E941207D4
:10148000EF2CF1CF992311F0882369F3805E883027
:1014900050F3F3CF803F38F3815F833070F7E3CFB1
:1014A00080910602816080930602BACF9D1113C01D
:1014B00090910002C9120FC0E1100DC08683C801CF
:1014C0000E94120787E0F801A0E0B2E001900D92BF
:1014D0008A95E1F767CFC8010E946B07882309F45A
:1014E00064CFEE2009F461CF80910602803288F04B
:1014F0002091000230910102398728879B868A86D5
:10150000909104029C871D868E87CE0108960E94CA
:10151000120787E0F801A0E0B2E001900D928A95F1
:10152000E1F70E9428090E94170942CF9091060214
:10153000292F207FA1F4682D9A8A898AA6017A89A9
:101540009E2D0E94780780E092E00E94120787E0BB
:10155000F50111928A95E9F70E94170961CF882356
:1015600009F482CF809101028D1110C08091000298
:10157000C8120CC0E1100AC09683C8010E9412076D
:1015800087E0F50111928A95E9F76ECFC8010E94B4
:101590006B07882309F409CFEE2009F406CF809168
:1015A0000602803208F4B5CF20910002309101028A
:1015B0003A8329839C828B82909104029D831E82B0
:1015C0008F83CE010196A3CF483C5105B8F58823FF
:1015D00009F4EECEFE2CEE2009F4E7CE8091010254
:1015E0008D111EC080910002C8121AC0809106029F
:1015F00080FD0DC0982F907F51F08683903F09F4B5
:101600005ECF982F907F905F8F70892B57CF87E0A8
:10161000F801A0E0B2E001900D928A95E1F724CFA5
:10162000C8010E946B07811174CF8091060281600E
:1016300080930602C8010E94120716CF682D9A8A6D
:10164000898AA6017A899E2D0E94780787E0F50194
:1016500011928A95E9F7A6CEAEE0B0E0E2E3FBE0B6
:101660000C940B24288739874A875B876C877D8792
:101670008E87CE0108960E94A2098823B1F06C855E
:10168000662341F0288539854A855B857D858E8571
:101690000E94820717E08091C6019091C7018913CB
:1016A0003DC02E96E3E00C94272487E0FE01389697
:1016B000DE01119601900D928A95E1F78C858823C1
:1016C00049F32091C70130E0C9010196877099273D
:1016D0004091C6014817190699F097E0929FD001F2
:1016E000939FB00D1124A853BE4FFE013196019077
:1016F0000D929A95E1F78093C7010E94F508CACF31
:101700000E944B071092C7011092C60187E0E0E0EB
:10171000F2E0DF011D928A95E9F7BCCF819FC001FD
:10172000112488539E4F0E94A209882309F4B9CF3F
:10173000E091C6011E9FF0011124E853FE4F208165
:101740003181428153816481758186810E94820743
:101750008091C60190E00196877099278093C60119
:101760009ACF80910F0286958695869508958091EF
:101770000F028770089590910F02977081E009F42D
:1017800080E0089580911B02089590911B02892B9F
:1017900080931B020895809590911B02982390934B
:1017A0001B02089510921B02089590911A02892B32
:1017B00080931A020895809590911A02982390932D
:1017C0001A02089510921A02089508950E94E50BD6
:1017D000089590911002292F282331F080958923B4
:1017E000809310020E94E60B089508950E94F50B65
:1017F000089590911102292F2823281729F0982B5A
:10180000909311020E94F60B089590911102292FD6
:10181000282331F080958923809311020E94F60BD2
:10182000089580911102882329F01092110280E01E
:101830000E94F60B08950F931F93CF93DF930091AF
:10184000000110910101C0911B0280911A02C82B66
:1018500080911102882331F0C82B0E940D1B811149
:101860000E94110CF801C083C0910001D0910101C8
:1018700048E050E067E072E0CE010E944724892BE7
:1018800059F088E0FE01A7E0B2E001900D928A9540
:10189000E1F7CE010E94AA1ADF91CF911F910F911B
:1018A00008950E941B0C089508950E94540C0895F9
:1018B0009091560292FF11C098E0899F90011124E7
:1018C000622B60930F020E94C30780910F028695DE
:1018D000869586950E94550C08950E94C307089529
:1018E00010920F0280E00E94550C089590910F0213
:1018F0008095892380930F02282F277069F4891718
:1019000059F09091560292FF07C08695869586956C
:101910000E94CF070E94700C08959091560292FB8E
:10192000222720F9281769F080FB92F9909356023C
:1019300080915502909156020E94D60C82E00E943E
:10194000760C08958091560282FB882780F991E0F9
:1019500089270E948D0C089581E00E948D0C0895C6
:1019600080E00E948D0C08956FEF7FEF90E080E0A3
:101970000E949924089590E080E00E946524863EAC
:101980009E4F19F40E944819089580E0089582E05E
:1019900090E00E945D24089583E090E00E945D2421
:1019A000089584E090E00E9465240895BC0184E0DD
:1019B00090E00E9499240895AB01BC018FE090E073
:1019C0000E948D240895AB01BC0183E190E00E9448
:1019D0008D24089560E070E0CB010E94E30C08952F
:1019E00060E070E0CB010E94DC0C0E94EA0C0895DC
:1019F000A8E0B0E0EEEFFCE00C940C2466EE7EEF85
:101A000090E080E00E94992460E082E090E00E94F3
:101A10007B2481E08093C50161E083E090E00E9437
:101A20007B2460E074E184E090E00E94992460E00F
:101A300086E090E00E947B2460E087E090E00E94D6
:101A40007B2440E050E0BA0188E090E00E948D24C1
:101A500060E084E290E00E947B2460E087E190E017
:101A60000E947B2460E08CE090E00E947B2460E098
:101A70008DE090E00E947B2419821A821B821C82D6
:101A80001D821E821F82188648E050E068E170E0E7
:101A9000CE0101960E946B2440E050E0BA0180E242
:101AA00090E00E948D2480E00E9461190E949019AC
:101AB0000E94F00C2896E2E00C9428240E94F80C76
:101AC0000895682F8EE090E00E947B240895A6E0A0
:101AD000B0E0EDE6FDE00C940A240E944B1C8C0162
:101AE00080911C0290911D028017910781F019824C
:101AF0001A820E944B1C682F49815A81792F80E0FD
:101B000090E00E94B30310931D0200931C022696DE
:101B1000E4E00C9426240E94571C60932A027093E0
:101B20002B0280932C0290932D02609326027093D7
:101B3000270280932802909329020895089508951A
:101B40000E949E0D089508950E94A30D08958EE7AA
:101B500090E10E94E6110E949F0D0E94A00D089541
:101B600081E008950E94B00D08950E94B00D08957F
:101B7000089508950E94B80D0E94B90D08950E941D
:101B8000BB0C811102C00E945E0D0E94C70C8093A5
:101B90002E020E94D10C90935602809355020E940F
:101BA00009120E94CC0C0E9496078091C4010E94E9
:101BB000AE0708950E94421C0E94A0190E943E1187
:101BC0000E94BF0D0E9487030E94A40D0895A6E005
:101BD000B0E0EDEEFDE00C9400240E94B20D811106
:101BE0000AC00E94670D0E945A160E949A03269608
:101BF000EEE00C941C240E9454112EE1822E22E06F
:101C0000922E640110E0F601E190F1906F01812FB6
:101C10000E9488101F5F143009F44BC0E816F906C3
:101C200091F380912E0281FD0E9491100E94B50DCA
:101C3000782E10E066246394812F0E9488107C0126
:101C4000F401A190B1904F018A159B0561F1A8267E
:101C5000BF2400E0CC24C394D12CC5018C219D214C
:101C6000892BC1F07720B1F009831A830E944B1CA5
:101C70009C838B836D8221E0C7018C219D21892B60
:101C800009F420E049815A816B817C818D81922FFA
:101C90000E94B3030F5FCC0CDD1C0C30F1F6F40195
:101CA0003297F182E0821F5F143031F60E948B0D73
:101CB0009ACFE816F90609F0B4CF93CF1F93CF93CC
:101CC000DF930E948D0FEC01C11580E5D807F0F578
:101CD000C11580E4D80708F09CC0C03ED10520F5AE
:101CE000CD3CD10508F082C0C83AD10578F4C53A98
:101CF000D10508F073C0C130D10519F1209709F161
:101D0000C430D105F0F4D0E0C0E01BC0C33CD10525
:101D1000D0F7C85AD0E0CC0FDD1FCF5ADE4F099064
:101D2000D881C02DD4640DC0C11580E2D80708F059
:101D3000D1C0C11581E0D80708F05AC0C83ED1050E
:101D400010F7CE01DF91CF911F910895C03682E543
:101D5000D80718F5C03482E5D80708F06BC0C03248
:101D600082E5D80708F05FC0C11582E5D80708F4FE
:101D700097C02C2F2695269580E2289F900111244C
:101D80008C2F8370C1E0D0E002C0CC0FDD1F8A959C
:101D9000E2F7C22BD32BDD68D4CFC03A82E5D80757
:101DA00060F4C03882E5D80708F459C0CF71D0E09C
:101DB000DC2FCC27C46FD06AC4CFC03C82E5D807E3
:101DC00008F462C0C03E82E5D80708F09CCFDC2F43
:101DD000CC27CC27DF71C06FD06AB3CFC55AD0E013
:101DE000C957DE4FC881D0E0D064ABCFD065A9CF52
:101DF0008D2F0E942F10182FCE0199270E948D0F32
:101E0000C12FD0E0DC2FCC27CC27DF71C82BD92BFA
:101E100098CFCE0199270E948D0FCC27DF70C82B59
:101E2000D92BD06A8ECFCF71D0E0DC2FCC27C16FF9
:101E3000D06A87CF2C2F26952695277080E2289F81
:101E4000900111248C2F8370C1E0D0E002C0CC0F30
:101E5000DD1F8A95E2F7C22BD32BDC6872CF2C2FC3
:101E600026952695277080E2289F900111248C2FBB
:101E70008370C1E0D0E002C0CC0FDD1F8A95E2F78D
:101E8000C22BD32BDA685DCF8C2F8F710E942F105D
:101E9000C82FD0E0DC2FCC27CC27DF71D06251CF08
:101EA0008C2F8F710E942F1055E0D695C7955A95AB
:101EB000E1F7CF70D0E0DC2FCC27282F30E084FF73
:101EC00005C044E0220F331F4A95E1F7C22BD32B04
:101ED000D06937CF8D2F8F710E942F10182FCE0110
:101EE00099270E948D0FC12FD0E0DC2FCC27CC2763
:101EF000DF71C82BD92BD2CF462F743030F46C3021
:101F000020F4672F0E94C412089590E080E00895A5
:101F10000E947C0F0E945E0E089582389105B9F1EF
:101F2000B0F48133910509F47DC048F489329105FC
:101F300009F46DC08A32910509F47BC00895853398
:101F4000910509F45FC08933910509F10895833E35
:101F50009105D9F138F4803E910529F1823E910531
:101F600079F10895863E9105D9F1873E910509F4EE
:101F70003EC0843E910541F52091560221FF24C0C8
:101F80008091550284FD19C087EE90E0089520915C
:101F90005502237009F05AC02091560223FF14C045
:101FA00089E290E008952091550220FD38C03091DB
:101FB000560230FF09C024FF43C090E080E008953E
:101FC0002091550222FDF7CF08952091550222FD60
:101FD0003AC03091560230FD39C024FFF5CFEDCF25
:101FE0002091550223FFF0CF24FDE7CFCDCF2091E4
:101FF000550223FD2EC03091560231FFEECF84EE04
:1020000090E008952091550225FFDECFC9CF2091A1
:10201000550225FD21C02091560223FFD5CF89E32B
:1020200090E0D2CF2091550226FFCECF8AE290E0F9
:1020300008952091550226FFC7CF81E390E00895CF
:1020400083EE90E0089582EE90E0089580EE90E0B7
:10205000089586EE90E0089585E390E008959091CC
:10206000550292FF10C041E0282F2471243009F05E
:1020700040E031E0282F2871283009F030E0431784
:1020800011F02CE0822793FF10C041E0282F24712B
:10209000243109F040E031E0282F2871283109F07F
:1020A00030E0431711F02CE082273091560230FFC8
:1020B00010C051E0282F2171213009F050E041E09B
:1020C000282F2871283009F040E0541711F029E03A
:1020D000822731FF10C041E0282F2171213109F002
:1020E00040E031E0282F2871283109F030E0431713
:1020F00011F029E0822794FD877E089580E00895FD
:1021000008950E948010089508950E9484100895F3
:10211000E82FF0E0EE0FFF1FE15AFD4F8081918123
:102120000895089580EA8A95F1F7089500C008950A
:102130000E9492100895F894E82FE295EF70F0E075
:1021400031A1282F2F7081E090E001C0880F2A95DF
:10215000EAF7982F9095932391A392A1892B82A3BC
:1021600078940895CF93DF9380E30E949B1081E3DE
:102170000E949B1082E30E949B1087E60E949B10A6
:10218000CAE8D1E089918F3F11F00E949B1081E055
:10219000C639D807B9F7DF91CF910895AF92BF92B2
:1021A000DF92EF92FF920F931F93CF93DF938C01F7
:1021B000D62EC62FD0E0CE018A569E4F7C01FC0160
:1021C00020812F3F09F44DC0F894E22FE295EF7083
:1021D000F0E031A12F7081E090E001C0880F2A95D6
:1021E000EAF7932F982B91A392A18095892382A33C
:1021F00078940E949610EAE8F1E046E951E021E087
:1022000030E0B12CA12C61916F3FA9F1A62FA295CE
:10221000AF70B0E090968C9190E06F7002C0959591
:1022200087956A95E2F780FD26C0C901A82AB92AD8
:10223000220F331F4E175F0731F7F70180818F3F61
:1022400011F00E949B1061E0A114B10409F460E058
:102250008D2D0E949810CC0FDD1FC00FD11FB982A9
:10226000A882DF91CF911F910F91FF90EF90DF90A7
:10227000BF90AF90089590E080E0D8CF0E94B21058
:1022800088E0EFE5F2E0DF01982F1D929A95E9F7DB
:10229000E7E5F2E0DF011D928A95E9F784E00E940C
:1022A0008F110E9481100895A8E0B0E0EAE5F1E105
:1022B0000C9409248E010F5F1F4F88E0F8011192E2
:1022C0008A95E9F7F12C6F2DC8010E94CE10F39486
:1022D000F4E0FF12F8CF48E050E0B80187E592E063
:1022E0000E94472421E0009709F420E0892B41F067
:1022F00088E0F801A7E5B2E001900D928A95E1F738
:1023000044E06FE572E087E592E00E949011182F9B
:102310000E948510812F2896E5E00C9425240895CD
:10232000B0E0A0E0E6E9F1E10C9406246C017B0149
:10233000042FC22F222379F081E0809331020E9482
:102340004B1C9093300280932F0280E0CDB7DEB714
:10235000E8E00C942224D0913102DD23B1F3809186
:102360002F02909130020E94631C059770F310E0D9
:10237000000F111FA801B601C7010E944724892B35
:1023800031F0A801B601C7010E945424CD2F10924C
:1023900031028C2FDBCF0E94351E0E94DA0D0E9485
:1023A000421E08950E94471E0E94E70D0E94611E72
:1023B00008950E94E41B0E941B1E0E94A70D0E940C
:1023C000CB110E94D2110E94BA0DFBCF9093AB01AA
:1023D0008093AA0108950E94B40C089580E00E94A1
:1023E0008810817008950E9454112FEF86E791E0C4
:1023F000215080409040E1F700C000000E9454113D
:102400000E94EE11882321F00E94EB110E94961C7D
:1024100008950E94F311089584E0089550E0440F58
:10242000551F98E1699F400D511D112490E6899F29
:10243000400D511D1124CA01899608950F931F93D1
:10244000CF93DF938430C8F46430B8F44C30A8F4F0
:102450000E940E128C010E945D24C82FD0E0DC2F58
:10246000CC27C80101960E945D249E01282BC9013A
:10247000DF91CF911F910F91089590E080E0F8CF08
:102480000F931F93CF93DF93122F032F843078F491
:10249000643068F44C3058F40E940E12EC01602F46
:1024A0000E947B24612FCE0101960E947B24DF9144
:1024B000CF911F910F9108951F93CF93DF93D0E099
:1024C000C0E011C0412F6C2F8D2F0E9467029C012C
:1024D000412F6C2F8D2F0E9440121F5F1C3091F7EF
:1024E000CF5FC43011F010E0EDCFDF5FD43041F7A3
:1024F000DF91CF911F910895EF92FF920F931F9359
:10250000CF93DF93EC018A017C01E60EF71ECE012A
:102510008996CE15DF0529F4CDB7DEB7E6E00C9439
:102520002424C03821E0D20740F40E945D24F80141
:1025300080830F5F1F4F2196EACFF8011082F9CFF9
:10254000B0E0A0E0E6EAF2E10C9406247C016A0126
:102550008C01060F171FEC01CE018996C017D10719
:1025600029F4CDB7DEB7E8E00C942224C03821E08E
:10257000D20740F4FE01EE19FF09EC0DFD1D60814C
:102580000E947B242196E8CF843038F4643028F40C
:102590004C3018F40E941E12089590E080E00895D7
:1025A00080E1089587E592E00895EF92FF920F93FE
:1025B0001F93CF93DF93EC018A017C01E60EF71E97
:1025C000CE0187559E4FCE15DF0529F4CDB7DEB776
:1025D000E6E00C942424C73522E0D20740F40E94A0
:1025E0005D24F80180830F5F1F4F2196E9CFF8012A
:1025F0001082F9CFB0E0A0E0E0E0F3E10C94062413
:102600007C016A018C01060F171FEC01CE01875572
:102610009E4FC017D10729F4CDB7DEB7E8E00C9480
:102620002224C73522E0D20740F4FE01EE19FF094B
:10263000EC0DFD1D60810E947B242196E7CFCF9396
:10264000DF93C9EAD1E060E0CE010E947B242196AD
:10265000C11584E0D807B9F7DF91CF910895A8E0BC
:10266000B0E0E5E3F3E10C940424F82E8FE08F153D
:1026700008F46EC08FEF93E00E945D24811168C062
:1026800009EA11E0F11035C0FE0131966F0188E0D2
:1026900011928A95E9F77801FFEFEF1AFF0AC80156
:1026A0000E945D2489831A82882309F451C08130F5
:1026B000D1F4580182E0A80EB11CC7010E945D242C
:1026C0008A83882309F444C09FEF980F9330F0F475
:1026D000780193E0E90EF11CC5010E945D248B8313
:1026E0008823B1F11C8260E0C6010E94EC178701CB
:1026F000D2CF011594E0190759F1C8010E945D2459
:10270000811101C0FA940F5F1F4FBCCF7501843057
:1027100051F702E010E07501EFEFEE1AFE0AC50175
:102720000E945D24F601E00FF11F8083882381F071
:102730008C3741F4E2E0F0E0EC0FFD1FE00FF11FF9
:102740001082D1CF0F5F1F4F57010730110519F7C6
:102750002896EAE00C942024CF93DF93EB01863196
:102760009C4711F50E94C20B9D81992399F08A7AAA
:1027700091E009F490E090933202811109C089E25E
:102780000E945D1B0E94510C80E0DF91CF91089563
:1027900085E3F6CF80913202811104C089E20E9464
:1027A000651BF0CF85E3FBCF81E0EFCFCF93DF93C5
:1027B000EC01FB018581882309F4D2C09E013057CA
:1027C0002332310508F0B2C00E94D10C909356021A
:1027D00080935502FE01E150F047E232F10520F40A
:1027E000E354FB4D0C94EF2380915502816080935C
:1027F000550293C0809156028860809356028DC026
:10280000809155028260F3CF809155028460EFCFB2
:10281000809155028860EBCF809156028160EDCFA8
:10282000809156028260E9CF809155028061DFCFAE
:10283000809155028062DBCF809155028064D7CFB2
:102840000E944B07809155028068D1CF809155023C
:102850008C60CDCF809156028360CFCF809155029E
:102860008E7FC5CF80915602877FC7CF809155025A
:102870008D7FBDCF809155028B7FB9CF809155025E
:10288000877FB5CF809156028E7FB7CF8091560259
:102890008D7FB3CF809155028F7EA9CF8091550255
:1028A0008F7DA5CF809155028F7BA1CF0E944B07D2
:1028B000809155028F779BCF80915502837F97CF70
:1028C000809156028C7F99CF8091550282FB992787
:1028D00090F921E0922790FB82F990FB83F987CF52
:1028E00080915602982F909591708E7F892B90FB46
:1028F00081F983CF90915502892F8F7B96FF806459
:1029000076CF0E944B0790915502892F97FB87F94C
:1029100080586DCF81E00E94610D809155029091A9
:1029200056020E94D60C0E944B0780E0DF91CF91A7
:10293000089580E0F0CF90915502892F8F7E94FF0B
:10294000806155CF90915502892F8E7F90FF8160D5
:102950004ECF90915602892F877F93FF88604DCF8D
:1029600081E0E4CF282F35EB2303C001112497FF2A
:1029700004C080589109892F089580589F4FFBCF3C
:102980008091390280FF0DC06091070170E0660FF1
:10299000771F6038710570F56115710569F1862F33
:1029A000089581FF07C06091070184E0689FB0012E
:1029B0001124EFCF6091070182FD0AC08091380297
:1029C0008823A9F02091060160910701821710F079
:1029D00088E0ECCF869FC001112433E0880F991F57
:1029E0003A95E1F7622F70E00E94DB23D2CF68E0D6
:1029F00070E0D5CF8FE7089581E008958091390286
:102A000080FF0CC06091030170E075956795759526
:102A100067956115710549F1862F089581FF06C0FC
:102A20006091030170E075956795F3CF60910301A4
:102A300082FD0BC0909137029923A1F060910201B1
:102A400080910301961738F0682F70E060387105A7
:102A500000F38FE70895899FC001112470E00E9460
:102A6000DB23F4CF61E070E0D7CF81E0089590914F
:102A70003C0220913D02922B20913F02922B20910B
:102A80003E02922B31F098E09093380291E09093BF
:102A900037028D3C31F40E94C014819580933D0231
:102AA00008958E3C19F40E94C014F8CF8F3C31F485
:102AB0000E94C014819580933C020895803D19F4D2
:102AC0000E94C014F8CF893D29F40E94FE1480931F
:102AD0003E0208958A3D21F40E94FE148195F7CFAD
:102AE0008B3D31F40E94FE14819580933F0208953E
:102AF0008C3D19F40E94FE14F8CF9FE2980F983095
:102B000070F4815D990B21E030E001C0220F8A95BD
:102B1000EAF780913B02822B80933B0208958D3D22
:102B200031F48091390281608093390208958E3D9D
:102B300021F4809139028260F7CF8F3DB9F78091FF
:102B400039028460F1CF40913C028D3C59F4809170
:102B50003D0287FF0DC010923D0241110BC0109243
:102B6000380208C08E3C81F480913D0218169CF317
:102B7000442381F080913E0290913F02892B09F01D
:102B80005AC01092370208958F3C49F447FFF0CFA6
:102B900010923C0280913D028111ECCFE0CF803D4C
:102BA00019F41416ACF3E4CF90913E02893D29F458
:102BB0001916F4F610923E02DBCF8A3D19F497FF06
:102BC000D7CFF8CF90913F028B3D29F497FFD0CF1C
:102BD00010923F02CDCF8C3D19F41916CCF3C8CF1B
:102BE0009FE2980F983090F4815D990B21E030E0DE
:102BF000B90102C0660F771F8A95E2F7CB01809575
:102C000090913B02892380933B02B2CF8D3D31F4FA
:102C1000809139028E7F80933902AACF8E3D21F4B4
:102C2000809139028D7FF7CF8F3D09F0A1CF809140
:102C300039028B7FF0CF08950E944B1C9C0190912C
:102C40003C0280913D02982B21F030933602209374
:102C5000350290913E0280913F02982B21F03093F3
:102C60003402209333028AE392E00E94B51A089559
:102C700086E0EAE3F2E0DF011D928A95E9F710921F
:102C8000380210923702109239020895FC018281B5
:102C900081110EC0838181110BC08481811108C014
:102CA00091E08581811101C090E0892F81700895A4
:102CB00081E0FCCFA6E0B0E0E0E6F6E10C940B2466
:102CC00086E0EAE3F2E0DE01119601900D928A952A
:102CD000E1F710923C0210923D0210923E021092D7
:102CE0003F028B819C81892B89F0809135029091E4
:102CF00036020E94631CAC01909138029923C9F1FD
:102D0000809108018417150608F440C08D819E81CA
:102D1000892B91F080913302909134020E94631CC0
:102D2000AC0190913702992309F46AC080910401A3
:102D30008417150608F472C0BE016F5F7F4F8AE3E7
:102D400092E00E94781B811105C08AE392E00E9404
:102D5000461681110E941C1686E0FE013196AAE3F8
:102D6000B2E001900D928A95E1F72696E3E00C948B
:102D70002724209109018AE0289F9001112424171B
:102D8000350720F69F5F9093380202C09F3FD1F72E
:102D90001B81112359F00E94C0149FEF11160CF4EF
:102DA00091E0899F802D112480933C021C81112386
:102DB00059F00E94C0149FEF11160CF491E0899F06
:102DC000802D112480933D0280913C02882309F4D8
:102DD0009DCF10913D02112309F498CF0E94B214A7
:102DE000882351F080933C02812F0E94B2148823E3
:102DF00029F080933D028ACF81E0F4CF81E0F9CFC2
:102E0000209105018AE0289F90011124241735079D
:102E100008F092CF9F5F9093370202C09F3FD1F797
:102E20001D81112359F00E94FE149FEF11160CF41E
:102E300091E0899F802D112480933E021E811123F1
:102E400059F00E94FE149FEF11160CF491E0899F37
:102E5000802D112480933F0280913E02882309F443
:102E60006BCF10913F02112309F466CF0E94B21478
:102E7000882351F080933E02812F0E94B214882350
:102E800029F080933F0258CF81E0F4CF81E0F9CF61
:102E9000B0E0A0E0EEE4F7E10C940524E82FF0E0C8
:102EA000E45DFD4FB490282F26952695269530E0B9
:102EB000F901E453FD4F0491877010E0082E02C021
:102EC000159507950A94E2F701701127F901E4546A
:102ED000FD4FE490F12C082E02C0F594E7940A947B
:102EE000E2F791E0E922FF24F901E455FD4FC49196
:102EF000D0E002C0D595C7958A95E2F7C170DD276D
:102F0000C62ED12C0115110549F5E114F10431F05B
:102F100086EE0E94F603C601009771F5B6018B2D6F
:102F20000E94DE04C601009779F5E114F104A1F5D1
:102F30000115110531F081EE0E948404C60100974D
:102F4000C9F5CD2B31F08CE20E94F604C114D104F6
:102F5000C9F5CDB7DEB7E9E00C94212481EE0E94DB
:102F6000F603C601009789F2EFE9FFE03197F1F728
:102F700000C000000197F6CFEFE9FFE03197F1F7CD
:102F800000C000000197C8CFEFE9FFE03197F1F7EB
:102F900000C000000197C7CF86EE0E948404C601DE
:102FA000009731F2EFE9FFE03197F1F700C0000040
:102FB0000197F6CFEFE9FFE03197F1F700C000008D
:102FC0000197BDCF8FE99FE00197F1F700C00000A6
:102FD00091E0C91AD108BACFEF92FF920F931F93D5
:102FE000CF93DF93EC01162F0AE08881882309F440
:102FF00059C0813009F052C08981813071F47E015D
:1030000082E0E80EF11C8A810E94F604E701812F1C
:1030100090E00097D9F52196E8CF823041F47E0107
:10302000E2E0EE0EF11C8A810E94F603EFCF8330BE
:1030300041F47E01F2E0EF0EF11C8A810E948404CB
:10304000E5CF843011F02196E2CF2A81229690E0DC
:1030500080E0AE014F5F5F4F2053330B2A303105C4
:1030600050F00097A1F2EFE9FFE03197F1F700C0CF
:1030700000000197F6CF089FB001099F700D112441
:10308000C901860F971F2981EA01E3CFEFE9FFE02D
:103090003197F1F700C000000197BBCF612F0E946C
:1030A0004817B9CFCDB7DEB7E6E00C9424240F93D0
:1030B0001F93CF93DF93C42FD22FFC0185818823E8
:1030C000C9F0409342020E944B1C909341028093AE
:1030D000400280E28C0F883040F4C77081E001C06C
:1030E000880FCA95EAF70E94FF04DF91CF911F91E4
:1030F0000F91089510914202141332C08091400242
:10310000909141020E94631C883C910548F5C0E201
:10311000CD0F1D17B9F080E2810F883040F4177091
:1031200081E001C0880F1A95EAF70E940605C830B1
:1031300048F481E09D2F977001C0880F9A95EAF7B7
:103140000E94FF04802F0E94F604C83070F6D770EA
:1031500081E001C0880FDA95EAF70E940605C5CF25
:1031600080E28C0F883008F6C77081E001C0880FBC
:10317000CA95EAF7F2CF0F93DB0188519C4787305D
:103180009105A0F5FC01E152FB4D0C94EF2306E202
:1031900021EE41EE6AE17CE7CD010E94571880E004
:1031A0000F91089507E225EE45EE6BE17CE7F4CF41
:1031B00006E221EE40EE68E17CE7EECF07E225EE85
:1031C00044EE69E17CE7E8CF06E221EE42EE6CE1F5
:1031D0007CE7E2CF07E225EE46EE6DE17CE7DCCF4F
:1031E00008E221E045EE6EE17CE7D6CF15968C91A2
:1031F000882319F010924202D3CF81E0D1CF1F93E0
:10320000CF93DF9387372CE7920759F0C1E08837D7
:103210009C47E1F4FB01C581CC2371F10E94421966
:1032200006C0FB01C581CC23B1F00E943F190E946A
:10323000C3070E944519D82F0E944219C82F0E9427
:103240003F194D2F6C2F0E94EB08C0E08C2FDF91AF
:10325000CF911F9108950E943F190E94CF070E94AD
:103260004519182F0E944219D82F0E943F19412F4B
:103270006D2F0E94EB08EACF0E944219EECF809199
:103280000C01089580910B01089580910A01089521
:1032900085E290E00E945D24843289F486E290E029
:1032A0000E945D24863059F487E290E00E945D24FC
:1032B00091E0813209F090E0892F8170089580E0DB
:1032C000FCCFCF93C82F6FEF811164E285E290E0CD
:1032D0000E947B246FEFC11166E086E290E00E94BD
:1032E0007B246FEFC11161E287E290E00E947B24B2
:1032F000CF910895089588E290E00E945D24682FA0
:1033000070E090E080E008950895CF93C62F0E946A
:1033100084196C2F88E290E00E947B24CF9108955D
:1033200080E00E94611960E070E0CB010E94851985
:103330000E945C120E941F1381E00E94611908958F
:103340000E947A190E947B190E9484190E944819D0
:10335000811102C00E949019089508959C01FB01FB
:103360008581882351F0A90157574038510530F421
:10337000822F0E942F1380E0089581E008952FEF9F
:10338000FC01208308950E94BF19089580E00895EC
:10339000B0E0A0E0EEECF9E10C940624EC01C62EBE
:1033A0000E94C619811110C0E881E150E331B8F4E0
:1033B000F0E0EA51FB4D0C94EF2319828CE08A83F4
:1033C0006C2DCE010E940F1DCDB7DEB7E8E00C9446
:1033D000222489818230C1F028F4813061F08FEF9E
:1033E0008883EECF833099F08430C9F71A821B822C
:1033F0001C821D82E5CF0E94571C0E94F5236A8320
:103400007B838C839D83DCCF0E947B19F6CF8A81DE
:10341000082F10E07E019EE0D92ED80E0430110551
:1034200078F6802F0E948810F701938384830F5FC2
:103430001F4FF2E0EF0EF11CD012F0CFC1CF898107
:10344000823031F0853059F68A810E94AD19B8CFAB
:103450006A817B818C819D810E94F5230E94851960
:10346000AFCF4B816A8189810E941E1298278927DC
:1034700098279D838C83A4CF2C813D8132272327DD
:1034800032274B816A8189810E94401299CF0E9424
:103490005C1296CF6C2DCE010E94C31991CF0E9471
:1034A000D01289838DCF0E94D2129827892798271E
:1034B0009A83898385CF6B8170E089819A81AE017F
:1034C0004C5F5F4F9827892798270E94D51278CFA5
:1034D0006B8170E089819A81AE014C5F5F4F9827C4
:1034E000892798270E94FA126BCF0E941F1368CF7A
:1034F0000E940C12D6CF6B8170E089819A81AE0157
:103500004C5F5F4F9827892798270E947C1258CFDD
:103510006B8170E089819A81AE014C5F5F4F982783
:10352000892798270E94A0124BCF9093480280933E
:1035300047020895E0914702F0914802309729F040
:103540000190F081E02D0995089580E008950E9492
:103550009A1A0895E0914702F0914802309721F0BD
:103560000280F381E02D09950895E0914702F091E2
:103570004802309739F022E0DC012C930680F78175
:10358000E02D09950895A3E0B0E0E9ECFAE10C9490
:103590000C24209145023091460228173907A1F0EA
:1035A0009093460280934502E0914702F0914802D1
:1035B000309751F023E029839B838A830084F1852F
:1035C000E02DCE01019609952396E2E00C94282483
:1035D000A3E0B0E0EEEEFAE10C940C24209143025B
:1035E0003091440228173907A1F090934402809348
:1035F0004302E0914702F0914802309751F024E0F5
:1036000029839B838A830084F185E02DCE01019676
:1036100009952396E2E00C942824409100015091F2
:1036200001019A012E5F3F4F485F5F4F80E02417F2
:10363000350709F40895F90191919F019923B9F390
:103640008F5FF5CF882371F0209100013091010147
:10365000F9013296285F3F4F9191981729F0E217B0
:10366000F307D1F780E0089581E008959C01FC0103
:1036700032969FEF80E04191461751F09F3F19F439
:10368000411101C0982F8F5F8630A9F79F3F09F441
:103690000895290F311D97FD3A95F9016283089528
:1036A000FC01329608962191261303C0DF01119781
:1036B0001C92E817F907B9F70895682F8091000167
:1036C000909101010E94361B0895682F809100019E
:1036D000909101010E94501B0895E0910001F0912A
:1036E0000101329686E0DF011D928A95E9F708957F
:1036F000DC01FB0111969C9111978181981322C0E6
:1037000012968C911297882319F0928189131AC00E
:1037100013968C911397882319F09381891312C003
:1037200015968C911597882319F0958189130AC0F5
:1037300014969C91992321F081E02481291303C0E0
:1037400080E001C081E08170089508950E94A51B6A
:103750000895811106C081E0809349020E94A61B52
:10376000089582E0F9CF83E0809349020E94A61B6E
:1037700008950E94A91B089581E0809349020E9448
:10378000A61B08950E94BC1B0895089508950E94E9
:10379000C61B0895089508950E94C51B0895CF93F0
:1037A0000E94CA1B0E9454110E94CB1BC0E08C2FA8
:1037B0000E948810892B31F4CF5FC430C1F780E0BC
:1037C000CF91089581E0FCCF85B7806885BF85B72C
:1037D000806885BF08951F921FB61F9211248F9392
:1037E0009F93AF93BF9380914A02811113C0809140
:1037F000670290916802A0916902B0916A024196B5
:10380000A11DB11D8093670290936802A093690285
:10381000B0936A02BF91AF919F918F911F901FBE8D
:103820001F90189580916F02843031F10E946A03D5
:1038300010924A0288E190E020E40FB6F894A8952F
:10384000809360000FBE2093600083B7817F846007
:1038500083BF83B7816083BF7894889583B78E7F59
:1038600083BF0FB6F894A89580916000886180931B
:103870006000109260000FBE08950E944B070E94E6
:103880006F03089582E084BD93E095BD9AEF97BDE4
:1038900080936E0008952FB7F894809167029091FD
:1038A0006802A0916902B0916A022FBF08952FB7F4
:1038B000F89460916702709168028091690290911A
:1038C0006A022FBF08959C014FB7F8948091670258
:1038D00090916802A0916902B0916A024FBF821B69
:1038E000930B089578941F921FB61F9211248F9303
:1038F0009F93AF93BF938091670290916802A091CC
:103900006902B0916A020196A11DB11D8093670200
:1039100090936802A0936902B0936A02BF91AF913D
:103920009F918F911F901FBE1F90189581E08093EB
:10393000E00080E28093D8001092C9008FE19EE4FD
:103940000197F1F700C0000087E090EBDC01809365
:10395000780290937902A0937A02B0937B0288E177
:103960009CE00FB6F894A895809360000FBE9093EA
:103970006000FFCF88E19CE00FB6F894A895809393
:1039800060000FBE90936000FFCF809153020895B6
:1039900008959B01BA0190916F029430E9F48F7001
:1039A0008093E9009FEF8091E800915085FD06C06B
:1039B00085ED8A95F1F700009111F5CF8091E8002F
:1039C00085FF0AC050E040E0C9010E94051F8091B8
:1039D000E8008E778093E800089543E050E0BC0152
:1039E00084E00E94C91C089546E050E0BC0184E0D8
:1039F0000E94C91C0895CF93DF93EC0148E050E08A
:103A0000BC0181E00E94C91C88E0FE01ABE4B2E089
:103A100001900D928A95E1F7DF91CF910895603280
:103A200031F440E250E0BC0182E00E94C91C0895DC
:103A300080916E02811109C00E94E4200E94412100
:103A40008091E20084608093E200089510926E02FB
:103A500008950E94BC1B089560916B0281E0611182
:103A600001C080E00E94B31B089590916F0281E035
:103A7000943009F080E060916B020E94B91B0895B8
:103A800042E061EC81E00E94602042E261EC84E06F
:103A90000E94602042E261EC82E00E94602042E2EB
:103AA00060EC83E00E94602090916F0281E094308E
:103AB00009F080E060916B020E94A91B089580913B
:103AC0007102833009F463C030F48130E1F1823057
:103AD00009F4A0C008958A3009F48CC08B3009F431
:103AE00071C0893009F052C080917002813209F0B2
:103AF0004DC08091740290917502009719F0029761
:103B000009F044C08091E800877F8093E8008091AD
:103B1000E80082FF37C09091F3008091F200029795
:103B200031F48091F100813011F0863021F48091E0
:103B3000F100809353028091E8008B778093E80036
:103B40000E94942023C080917002813AF9F4809100
:103B5000E800877F8093E80080917402909175025D
:103B6000892B61F468E08BE492E070E00E94A31F6F
:103B70008091E8008B778093E800089560E090E002
:103B800080E0F3CF80916F028111C1CF08958091C1
:103B90007002813AD9F78091740290917502892B55
:103BA000A9F78091E800877F8093E8008091E80082
:103BB00080FFFCCF809117018093F1008091E80095
:103BC0008E77BCCF80917002813201F780917402B0
:103BD00090917502892BD1F68091E800877F8093C0
:103BE000E8000E94942080917202809317010E9445
:103BF0004B07089580917002813241F68091E80070
:103C0000877F8093E8000E949420809173028093C4
:103C10005402089580917002813A09F0B7CF8091E3
:103C2000E800877F8093E8008091E80080FFFCCF68
:103C300080915402C1CF84B7877F84BF0FB6F894B8
:103C4000A895809160008861809360001092600068
:103C50000FBE80E890E00FB6F894809361009093D7
:103C600061000FBE0E94C21B08950E94E4200E94C2
:103C70004121E2EEF0E080818460808378940E94AC
:103C8000C02308958DE091E00E94951A08958091D7
:103C90006F02853031F480916F02853019F00E94F7
:103CA0003D1C08950E94121C80916D02882399F397
:103CB0000E94CF1B882379F30E94EF1E0E944B07BE
:103CC000EACFA0E2B0E0E7E6FEE10C940C2480919C
:103CD0006F02843009F583E08093E9008091E80069
:103CE00082FF1AC08091E80090E085FF09C050E093
:103CF00040E060E270E0CE0101960E94541F91E026
:103D00008091E8008B778093E800992329F060E2A6
:103D1000CE0101960E94C819A096E2E00C942824D6
:103D20009A0140917602509177020E94981E089560
:103D3000492F55274330510521F168F44130510591
:103D400009F443C04230510509F444C090E080E0DA
:103D500050E040E026C04132510551F14232510558
:103D6000A9F76330710590F7FB01EE0FFF1FE356D3
:103D7000FE4F4081518166567E4FFB01808190E06D
:103D800010C099278130910581F0009729F00297A2
:103D9000E9F6ECEDF2E002C0E8E0F3E0849190E0B7
:103DA000AF01F901518340830895E2EFF2E0F6CFCD
:103DB0006330710558F6660F771FFB01ED55FE4F16
:103DC0004081518189E090E0ECCF82E190E047E6CC
:103DD00053E0E7CF8BE590E04CE053E0E2CF80E1A9
:103DE00089BD82E189BD09B400FEFDCF8091D80074
:103DF0008F7D8093D8008091E00082608093E00006
:103E00008091E00081FDFCCF0895AF92BF92CF92E8
:103E1000DF92FF920F931F93CF93DF936C01EB011F
:103E20008A010E94B320F82E811123C001151105CB
:103E300039F0F80180819181C81BD90BC80ED91EB9
:103E4000B12CA12C2097A9F08091E80085FD22C01B
:103E50008091E8008E778093E80001151105A1F0AC
:103E6000F80180819181A80EB91EB182A08285E0FF
:103E7000F82E8F2DDF91CF911F910F91FF90DF9042
:103E8000CF90BF90AF9008950E94B3208823D1F2C5
:103E9000F82EEFCFF60181916F018093F100219709
:103EA000FFEFAF1ABF0ACECFAF92BF92CF92DF9291
:103EB000FF920F931F93CF93DF936C01EB018A0165
:103EC0000E94B320F82E811123C00115110539F08D
:103ED000F80180819181C81BD90BC80ED91EB12C65
:103EE000A12C2097A9F08091E80085FD22C0809147
:103EF000E8008B778093E80001151105A1F0F80127
:103F000080819181A80EB91EB182A08285E0F82E31
:103F10008F2DDF91CF911F910F91FF90DF90CF9068
:103F2000BF90AF9008950E94B3208823D1F2F82E5D
:103F3000EFCF8091F100F60181936F012197FFEFA0
:103F4000AF1ABF0ACECFFC01809176029091770222
:103F500086179707A0F06115710529F49091E80084
:103F60009E779093E80090E06115710551F49111EE
:103F700008C08091E80082FF34C080E00895BC0151
:103F8000F2CF80916F028823C1F18530C1F1809119
:103F9000E80083FD30C08091E80082FDEACF809187
:103FA000E80080FFE1CF8091F3002091F200382FEC
:103FB0006115710519F02830310558F091E028306D
:103FC000310509F090E02091E8002E772093E80079
:103FD000CBCF81918093F100615071092F5F3F4FEA
:103FE000E7CF80916F02882341F0853041F08091C6
:103FF000E80083FFBECF81E0089582E0089583E06A
:104000000895FC01809176029091770286179707B8
:10401000A0F06115710529F48091E8008E778093F6
:10402000E80090E06115710551F4911108C080918C
:10403000E80082FF35C080E00895BC01F2CF809196
:104040006F028823C9F18530C9F18091E80083FDB2
:1040500031C08091E80082FDEACF8091E80080FFC6
:10406000E1CF8091F3002091F200382F61157105A6
:1040700019F02830310558F091E02830310509F069
:1040800090E08091E8008E778093E800CBCF849118
:104090008093F1003196615071092F5F3F4FE6CF59
:1040A00080916F02882341F0853041F08091E800D3
:1040B00083FFBDCF81E0089582E0089583E00895F5
:1040C000982F973028F08F708093E90081E0089551
:1040D0009093E900242F762F50E0981731F07091DB
:1040E000EC002091ED005091F00021FD02C09F5F97
:1040F000E8CF3091EB003E7F3093EB003091ED0044
:104100003D7F3093ED003091EB0031603093EB0058
:104110007093EC002093ED005093F0002091EE009E
:1041200027FDE5CF80E008958091700287FF13C0DE
:104130008091E80082FF06C08091E8008B77809331
:10414000E80004C080916F028111F2CF0895809140
:104150006F028823D9F38091E80080FFF8CF809127
:10416000E8008E77ECCF2091E4003091E50095E6F1
:10417000A9012091EC00822F817020FF06C0809160
:10418000E80080FF06C080E008952091E80022FD4D
:104190001AC080916F02882389F0853089F0809160
:1041A000EB0085FD0FC02091E4003091E50042173F
:1041B0005307F9F29150E1F684E0089582E0089502
:1041C00083E0089581E008950E9453210E945B21BD
:1041D000E0EEF0E0808181608083E8EDF0E08081B6
:1041E0008F77808319BCA7EDB0E08C918E7F8C9384
:1041F00080818F7E808310926E0208950F931F93AB
:10420000CF93DF930E9453210E945B21C8EDD0E041
:1042100088818F77888388818068888388818F7D73
:10422000888319BC10926F0210926B0210926D027B
:1042300010926C0200EE10E0F80180818B7F808389
:1042400088818160888342E060E080E00E94602095
:10425000E1EEF0E080818E7F8083E2EEF0E080810D
:1042600081608083808188608083F80180818E7F77
:104270008083888180618883DF91CF911F910F9126
:104280000895E8EDF0E080818F7E8083E7EDF0E037
:1042900080818160808384E082BF81E080936E02B0
:1042A0000E94FE200895E8EDF0E080818E7F8083FB
:1042B0001092E20008951092DA001092E100089541
:1042C0001F920F920FB60F9211242F933F934F938B
:1042D0005F936F937F938F939F93AF93BF93EF936E
:1042E000FF938091E10082FF0BC08091E20082FF8A
:1042F00007C08091E1008B7F8093E1000E94BF2383
:104300008091DA0080FF19C08091D80080FF15C02D
:104310008091DA008E7F8093DA008091D90080FF4F
:1043200096C080E189BD82E189BD09B400FEFDCF60
:1043300081E080936F020E94181D8091E10080FF50
:1043400019C08091E20080FF15C08091E2008E7F4D
:104350008093E2008091E20080618093E20080918E
:10436000D80080628093D80019BC85E080936F02EA
:104370000E942C1D8091E10084FF2BC08091E200FF
:1043800084FF27C080E189BD82E189BD89B5982F6E
:10439000917080FFFBCF8091D8008F7D8093D800F3
:1043A0008091E1008F7E8093E1008091E2008F7E1A
:1043B0008093E2008091E20081608093E20080912E
:1043C0006B02882309F449C084E080936F020E9445
:1043D000351D8091E10083FF29C08091E20083FFB9
:1043E00025C08091E100877F8093E10082E0809387
:1043F0006F0210926B028091E1008E7F8093E1004A
:104400008091E2008E7F8093E2008091E2008061E3
:104410008093E20042E060E080E00E9460208091B2
:10442000F00088608093F0000E94291DFF91EF91B9
:10443000BF91AF919F918F917F916F915F914F91BC
:104440003F912F910F900FBE0F901F90189519BCA0
:1044500010926F020E94261D70CF8091E30087FDAD
:1044600093E090936F02B3CF1F920F920FB60F920B
:1044700011242F933F934F935F936F937F938F9369
:104480009F93AF93BF93CF93DF93EF93FF93D0911D
:10449000E900DF708091EC00C82FC17080FDC0E89A
:1044A0001092E9008091F000877F8093F00078946B
:1044B0000E9478221092E9008091F0008860809339
:1044C000F000CD2BCF70C093E900FF91EF91DF9109
:1044D000CF91BF91AF919F918F917F916F915F919C
:1044E0004F913F912F910F900FBE0F901F901895F5
:1044F000AAE2B0E0EEE7F2E20C940B2480E792E04F
:104500002091F100FC012193CF01F2E088379F0751
:10451000B9F70E945F1D8091E80083FF1EC1809162
:104520007002909171029A3008F017C1E92FF0E003
:10453000E750FB4D0C94EF23803899F0823809F056
:104540000CC1809174028F70873008F006C180938F
:10455000E9008091EB0085FB882780F91092E90043
:1045600006C080916C0290916D02911182609091D1
:10457000E800977F9093E8008093F1001092F1009B
:104580008091E8008E77E5C0882309F4D3C082309B
:1045900009F0E3C0809172028111D6C0809174024B
:1045A0008F702FEF280F263008F0D7C08093E900D6
:1045B0002091EB0020FFC8C0933031F48091EB00D4
:1045C00080628093EB00C0C09091EB00906190936B
:1045D000EB0021E030E001C0220F8A95EAF720933A
:1045E000EA001092EA008091EB008860EACF811126
:1045F000B4C0109172021F778091E3008078812B04
:104600008093E3008091E800877F8093E8000E9418
:1046100094208091E80080FFFCCF8091E3008068C7
:104620008093E30082E0111183E080936F0295C0D4
:104630008058823008F091C080917202909173028C
:104640008C3D23E09207A1F583E08A838AE2898387
:104650004FB7F894DE01139620E03EE051E2E32FDD
:10466000F0E050935700E49120FF03C0E295EF7013
:104670003F5FEF708E2F90E0EA30C0F0C7968D93C9
:104680009D932F5F243159F74FBF8091E800877FBA
:104690008093E8006AE270E0CE0101960E94A31FB9
:1046A0008091E8008B778093E80057C0C096E7CFF1
:1046B0006091740270917502AE014F5F5F4F0E946E
:1046C000901EBC01892B09F448C09091E800977FA7
:1046D0009093E80089819A810E940120E1CF80387F
:1046E000E1F58091E800877F8093E80080916B027C
:1046F0008093F10045CF811130C0909172029230C9
:1047000060F58091E800877F8093E80090936B02CA
:104710000E94942080916B02882311F084E005C0F0
:104720008091E30087FDFACF81E080936F020E94C1
:10473000401D13C080917202813079F481E0933082
:1047400009F080E080936D021092E9008091E8000A
:10475000877F8093E8000E9494208091E80083FF87
:104760000AC08091E800877F8093E8008091EB0089
:1047700080628093EB00AA96E3E00C9427240895CE
:10478000CF9380916F028823A1F0C091E900CF7090
:104790009091EC00892F817090FD80E8C82B1092D9
:1047A000E9008091E80083FD0E947822CF70C093D9
:1047B000E900CF91089597FB072E16F4009407D0D7
:1047C00077FD09D00E94332407FC05D03EF4909574
:1047D00081959F4F0895709561957F4F0895EE0FD5
:1047E000FF1F0590F491E02D09946927962769270A
:1047F00078278727782708952F923F924F925F92CC
:104800006F927F928F929F92AF92BF92CF92DF92E0
:10481000EF92FF920F931F93CF93DF93CDB7DEB745
:10482000CA1BDB0B0FB6F894DEBF0FBECDBF0994D9
:104830002A88398848885F846E847D848C849B8430
:10484000AA84B984C884DF80EE80FD800C811B813E
:10485000AA81B981CE0FD11D0FB6F894DEBF0FBE6D
:10486000CDBFED010895AA1BBB1B51E107C0AA1FD4
:10487000BB1FA617B70710F0A61BB70B881F991F01
:104880005A95A9F780959095BC01CD010895FB013B
:10489000DC0104C08D910190801921F441505040F9
:1048A000C8F7881B990B0895FB01DC0102C0019039
:1048B0000D9241505040D8F70895F999FECF92BD1E
:1048C00081BDF89A992780B50895A8E1B0E042E04B
:1048D00050E00C94A124DC01A40FB51F41505040BE
:1048E00048F0CB01840F951F2E910E947C244150EB
:1048F0005040D0F70895262FF999FECF92BD81BD83
:10490000F89A019700B4021639F01FBA20BD0FB60D
:10491000F894FA9AF99A0FBE08950396272F0E94E9
:104920007C240E947B24252F0E947C24242F0C941D
:104930007C240196272F0E947C240C947B24DC018C
:10494000CB01FC01F999FECF06C0F2BDE1BDF89A9A
:10495000319600B40D9241505040B8F70895F89444
:10496000FFCF4E054E059E059E0503061F067D05DD
:104970007D0524068B069A069A062E14A214361478
:10498000001404143A1408143E144A1414149B140A
:1049900018144E141C1452147A1420145614811432
:1049A00026145C1464140C144214101446142A14B3
:1049B000601470148A149914FA133214A914D818B4
:1049C000DE18C718D218E418EA18F018DD19E9192A
:1049D0001F1A311A3C1A471A4A1A4A1A4A1AEF1968
:1049E000EF194F1A531A5B1A681A751A781A7B1A3C
:1049F000881A9C22C422AD23C422AD23F722182397
:064A0000AD236F237B23B0
:104A06001202280850011E0A1401030201C51CFBEC
:104A16001CC81CF41CED1C01E200E900EA00B5000C
:104A2600B600B700CD008301CC008A019201940143
:104A36002102230224022502260227022A02B300AB
:104A4600B4006F0070009F01CB019F02A00281821B
:104A560083E200E900EA00B500B600B700CD0083A6
:104A660001CC008A0192019401210223022402252D
:104A760002260227022A02B300B4006F0070009FCC
:104A860001CB019F02A002818283F0F1F4F5F6F7D3
:104A96006636353497963031326744227B16047970
:0A4AA600039B031E033703570300B0
:00000001FF
